:020000040800F2
:10000000005000202D2E00088D2E00088D2E000897
:100010008D2E00088D2E00088D2E00080000000097
:100020000000000000000000000000008D2E00080D
:100030008D2E0008000000008D2E0008AB21000866
:100040008D2E00088D2E00088D2E00088D2E0008A4
:100050008D2E00088D2E00081D2D0008232D000870
:10006000292D00082F2D0008352D00088D2E0008A1
:100070008D2E00088D2E00088D2E00088D2E000874
:100080008D2E00088D2E00088D2E00088D2E000864
:100090008D2E00088D2E00088D2E00083B2D0008A7
:1000A0008D2E0008F13800088D2E00080539000853
:1000B000093900081D390008313900088D2E000863
:1000C0008D2E00088D2E00088D2E00088D2E000824
:1000D0008D2E0008352C00084D2C0008652C0008DA
:1000E000512D00088D2E00088D2E00080000000004
:1000F0000000000000000000000000000000000000
:0C01000000000000000000005FF808F1A3
:10010C00034613F8012B002AFBD1181A013870474B
:10011C0010B5054C237833B9044B13B10448AFF335
:10012C0000800123237010BD8C0000200000000013
:10013C00C43E000808B5034B1BB103490348AFF399
:10014C00008008BD0000000090000020C43E0008A4
:10015C004068704710B50446236820469B68984752
:10016C00002804DD236820465B6A9847F4E710BD3D
:10017C0010B50446054B0360A06828B143680821FC
:10018C00A36003F035FDF7E7204610BD643F00087F
:10019C0010B50446FFF7ECFF20461C2103F028FDA8
:1001AC00204610BD38B5044608200D4603F01CFD52
:1001BC0000234360A36805804BB1E3685860636813
:1001CC00E0600133636000230120237638BDA0601A
:1001DC00F5E7436870B5002B044614DD012B0DD0F8
:1001EC00806808214668058803F002FD6368A660F4
:1001FC00013B636000232376284670BD0368BDE88D
:10020C0070401B6A18470025F6E7436870B5044632
:10021C000D4623B9BDE8704003681B6918470820D8
:10022C0003F0E2FCA368058043606368A0600133BF
:10023C00636000230120237670BD38B50D4604465B
:10024C00616829B12046A847002801DC6468F7E7FB
:10025C00204638BD43682DE9F74F012B07468846E9
:10026C0012DD4FF0000B00F1080A54462668002EF0
:10027C00FBD041463046FFF7E0FF4568814635B973
:10028C005445F2D1F8603D7603B0BDE8F08F41469D
:10029C002846FFF7D2FF4368C9F804B0C0F804B091
:1002AC00294630460193C0470028019B09DC266093
:1002BC007268341D5AB975602C466D68002DFBD1DF
:1002CC000CE025606A682C1D1AB11546324616469C
:1002DC00E6E76E6034467668002EFBD144F8043FA6
:1002EC00C4E7000001460622014803F087B800BFAE
:1002FC009804002070B5044615460E4600F0E6FC46
:10030C0040F2DC5229462046E56000F0AFFD0023A8
:10031C0020466660A360236170BD000038B50446BA
:10032C000D461948194903F0ACFB204600F0B6FD08
:10033C000A220146144803F0F3FBA560204600F0A6
:10034C00ADFDA568A84211D0204600F0A7FD2D1ADE
:10035C00002D204606DD00F0A1FD411C204600F0DA
:10036C00FDFCEBE700F09AFD411EF7E70849064853
:10037C0003F087FB204600F091FDBDE838400146B4
:10038C000A22014803F0CCBB98040020DC3E000894
:10039C00E43E000810B5044600F098FD28B940F280
:1003AC00DC522046E16800F061FDB421204600F0EB
:1003BC00D5FC4FF4FA6002F055FE204600F086FDA5
:1003CC0010B1204600F098FC0023A36010BD10B5BE
:1003DC00044600F07BFD28B940F2DC522046E1686F
:1003EC0000F044FD0021204600F0B8FC4FF4FA6008
:1003FC0002F038FE204600F069FD10B1204600F0F6
:10040C007BFC0023A36010BD30B587B06D46154C46
:10041C00032200216846FFF76DFF0FCD0FC495E84E
:10042C0003006D4644F8040B21700F4C022201218D
:10043C006846FFF75FFF0FCD0FC495E8030001225C
:10044C0044F8040B21706C4611466846FFF752FFC6
:10045C000FCC064D0FC594E8030045F8040B29702A
:10046C0007B030BDA8000020E0010020C000002033
:10047C00002383600373052906D8DFE801F0030726
:10048C00090B0D0F064A426003707047054AFAE7E4
:10049C00054AF8E7054AF6E7054AF4E7054AF2E7A4
:1004AC00EC3E0008F43E0008FD3E0008073F000843
:1004BC00103F0008173F000838B505460A480C469F
:1004CC0000F0ECFC41190848FFF728FF34B107484D
:1004DC00FFF760FF0548FFF77AFF38BD0448FFF7C8
:1004EC0059FF0348F7E700BFA8000020E0010020F7
:1004FC00C0000020F0B5424885B000F041FA00225F
:10050C0004213F4800F056FA3E493D4803F0B9FA41
:10051C00012203213A4800F04DFA3B49384803F0D8
:10052C00B0FA4FF47A7002F09DFD4FF41650FFF7BD
:10053C00D9FE334800F024FA3449314803F0A1FACB
:10054C004FF47A7002F08EFDFFF75EFF2C4800F03E
:10055C0017FA2F492A4803F094FA4FF47A7002F0F4
:10056C0081FD00242B4F264E0A222146384603F0EB
:10057C00D7FA304600F004FA0A222146304603F03E
:10058C00CDFA002302221021304600F031FA214628
:10059C006846FFF76DFF6A461F4B0DF1080C1B6890
:1005AC0003EB0413154603CD6545186059602A46C4
:1005BC0003F10803F6D12868013418602A79062C57
:1005CC001A71D1D10E4800F0DBF914490C4803F034
:1005DC0058FA4FF47A7002F045FD22464FF416514A
:1005EC000F4802F00BFF064800F0CAF90D49044809
:1005FC0003F047FA4FF47A7002F034FD05B0F0BD09
:10060C00FC0100201F3F0008283F0008333F000872
:10061C003B3F000898040020F8010020443F0008EC
:10062C00D8000020503F00080246137E806823B19A
:10063C0053698B42CCBF002310698B4203DA48B15B
:10064C0040680133F9E704D10121C2E904031176B2
:10065C0070470020704708B5FFF7E6FF00B100882F
:10066C0008BD4168F8B5002904464FF000051BDDB4
:10067C00012905760FD00239FFF7D6FF06464068F0
:10068C000821078803F0B4FA63687560013BE660E3
:10069C0063603846F8BD80680821078803F0A8FA23
:1006AC00C4E902556560F4E72F46F2E7002970B5FE
:1006BC00044620DB43688B421DDD21B903685B6A6D
:1006CC00BDE870401847013B8B4202D103681B6A9E
:1006DC00F6E70139FFF7A8FF034640680821426896
:1006EC0005885A6003F084FA6368013B6360002359
:1006FC002376284670BD0025FBE738B50B1E144643
:10070C0007DB42689A4204DDFFF78EFF048001206C
:10071C0038BD0020FCE743682DE9F0418B420446CC
:10072C000F46164605DC03681B693146BDE8F041EF
:10073C00184711B903685B69F7E7082003F054FA0E
:10074C004FF000080546A0F80080C0F80480791E20
:10075C002046FFF769FF43682E806B606368456035
:10076C0001330120636084F81880BDE8F08100003B
:10077C001FB5C9231322CDE901321223C722C6218A
:10078C0000931248C82300F007FA114800F09EFAB3
:10079C00104800F09BFA104800F098FA602003F023
:1007AC0025FA0E4BC2221860C3210D4802F042FDFF
:1007BC000C4B0D4A1A600022C3E90222C3E9042241
:1007CC005A601A7605B05DF804FB00BFFC010020EE
:1007DC00A8000020E0010020C0000020F80100204B
:1007EC00D800002018020020643F000808B5024819
:1007FC00FFF7BEFC08BD00BF18020020322008B570
:10080C0002F030FC044802F04EFC18B1024802F031
:10081C0043FEC0B208BD00BF9804002038B50F4895
:10082C0002F041FCC8B1FFF7E9FF00240A2530387B
:10083C00C3B2092B04D805FB0404FFF7DFFFF6E76E
:10084C00FFF7DCFFFFF7DAFFA0F131035942204636
:10085C005941BDE83840FFF72FBE38BD9804002041
:10086C00002070477047000070B5174C00210546FA
:10087C00807A02F0B9FB2368144A154EB3FBF2F2EE
:10088C00716873685B1A9A42FBDC0121A87A02F04A
:10089C00ABFB23680D4A7168B3FBF2F20C4E736824
:1008AC005B1A9A42FBDC0021A87A02F09DFB2268BD
:1008BC00064B7168B2FBF3F364225A430448436855
:1008CC005B1A9A42FBDC70BD2400002040420F00F2
:1008DC00001000E0F8B504460E46002500F10B07A9
:1008EC0046FA05F117F8010B01F00101013502F090
:1008FC007BFB042DF4D12046BDE8F840FFF7B4BFD4
:10090C00F8B504460E46002500F10B0746FA05F132
:10091C0017F8010B01F00101013502F065FB082D00
:10092C00F4D12046BDE8F840FFF79EBF38B5044629
:10093C000D46007A114602F057FB607AFF2802D070
:10094C00002102F051FBE37CDB0605D5294620464D
:10095C00BDE83840FFF7D4BF20462909FFF7BAFF9E
:10096C0029462046BDE83840FFF7B4BF08B5012240
:10097C00FFF7DCFF012008BD0022FFF7D7BF000006
:10098C00012108B5FFF7F8FF074A084B1168084A20
:10099C005868B1FBF2F24FF4FA6151435A68121ADB
:1009AC009142FBDC08BD00BF24000020001000E0D9
:1009BC0040420F00032A28BF032208B5C37D93428F
:1009CC009CBF03F1FF32D2B20244137E194461F092
:1009DC007F01C9B2FFF7D0FF08BD08B5017D41F01A
:1009EC000402027541F00C01FFF7C6FF08BD0000C0
:1009FC0070B50446012A88BFC07CA17684BF40F044
:100A0C000800E0744FF480404031E2752083E176B9
:100A1C002BB1012A02BFE37C43F00403E374207A78
:100A2C00012102F07DFA607AFF2802D0012102F048
:100A3C0077FA01216FF00A06A07A02F071FA04F13C
:100A4C000B05361BE37C13F0100F14BF0822042295
:100A5C0073199A4205DD012115F8010B02F060FAB9
:100A6C00F0E74A4E4A4A31684A4BB1FBF2F24CF27B
:100A7C005031514358685A68121A9142FBDC0021DC
:100A8C00207A02F0B1FAA07A002102F0ADFA607A75
:100A9C00FF2802D0002102F0A7FAE17C3D4D11F0B5
:100AAC00100F49D103212046FFF714FF3268384B51
:100ABC006968B2FBF3F341F294125A436B685B1A08
:100ACC009A42FBDC03212046FFF704FF3268304BCF
:100ADC006968B2FBF3F341F294125A432D4D6B68E3
:100AEC005B1A9A42FBDC03212046FFF7F3FE3268C7
:100AFC00274B6968B2FBF3F396225A4325484368A7
:100B0C005B1A9A42FBDC02212046FFF7E3FEE17CF4
:100B1C00204641F02001FFF72FFF042320462375C8
:100B2C00FFF75BFF2046FFF72BFF02230621204631
:100B3C006375FFF721FF70BD41F020012046FFF7E0
:100B4C001BFF3268124B6968B2FBF3F341F294124B
:100B5C005A436B685B1A9A42FBDCE17C204641F0FD
:100B6C002001FFF709FF3268094B6968B2FBF3F308
:100B7C0096225A43074843685B1A9A42FBDCE17C95
:100B8C00204641F02001FFF7F7FEC0E724000020CB
:100B9C0040420F00001000E070B51D4601720023AA
:100BAC00FF21044682729DF810200A4E02739DF8B4
:100BBC001420436042739DF8182006604172C57280
:100BCC008273C373036101221021FFF711FF2046CA
:100BDC0070BD00BFA03F000803681847012A03D06E
:100BEC00022A03D0002070470160FBE70B6803600A
:100BFC00F8E7000070B5304C304D2378304E13F0D0
:100C0C00800F18D000232B602378327801335BB22D
:100C1C00237023785BB2934203DA23785BB20B2BFD
:100C2C001EDD44F61F622B680433934239D92548E4
:100C3C0002F06BFD3DE0237832785BB29342E3DA4D
:100C4C002378214A5BB202EBC3035B78012BDBD127
:100C5C00237800215BB212F8330002F0C5F9D3E718
:100C6C002378194E5BB206EBC30359680022154872
:100C7C0002F016FE23785BB206EBC3035A682B68AE
:100C8C0013442B6023785BB206EBC303597801291C
:100C9C0011D123785BB216F83300BDE8704002F036
:100CAC00A3B929680022C1F59C410648203102F005
:100CBC00F7FDFF23237070BD0000002034020020DC
:100CCC00380200203C020020EC020020084A137875
:100CDC000B2B09D8591C1170064A037002EBC30385
:100CEC0040F2DC525A607047FF230370704700BF1C
:100CFC0038020020EC02002000230178074A02EBA6
:100D0C00C1014B7002EBC3014978012905D00133B5
:100D1C000C2BF7D1024802F0EDBB7047EC0200201F
:100D2C003C02002010B504780B2C14D890F901204B
:100D3C00C2F18802B1EB820F4FEA820307DB90F914
:100D4C000230C3F516739B008B42A8BF0B46024AB8
:100D5C0002EBC402536010BDEC020020B1F5087F19
:100D6C0013B5044615DAB429A8BFB421084694F982
:100D7C00022094F90130C2F516729200C3F1880377
:100D8C00002100929B00B42220EAE07002F010FFD8
:100D9C000146204602B0BDE81040FFF7C3BF00007B
:100DAC002DE9FF411C46037806460B2B0F461546D2
:100DBC004CD80121384602F0B3F8DFF8AC80337818
:100DCC0030460A9908F83370FFF7C8FFD5F508725A
:100DDC0048BF0332D4F5166348BF03339B10B3707E
:100DEC0000239210727008EBC3025278012A28D0AB
:100DFC0001330C2BF7D1174802F01EFD1649B0FB3E
:100E0C00F1F1144802F073FC002244F62061114801
:100E1C0002F046FD114B69460093114B0D480393AC
:100E2C00104B029302F0AAFD029B1BB169460322F0
:100E3C00084698470748002102F05DFC054802F07F
:100E4C0035FC337808EBC30501236B70307804B0A4
:100E5C00BDE8F0813C02002040420F00010C00086C
:100E6C00E50B0008E90B0008EC02002007B54FF475
:100E7C00166300924FF40872FFF792FF03B05DF80F
:100E8C0004FB00000278FF2A1DBF034B03EBC203D7
:100E9C0058680020704700BFEC02002007B50146DF
:100EAC00FFF7F0FFB42391F9022091F90110C2F57C
:100EBC001672C1F188010093920000238900013061
:100ECC0002F076FE03B05DF804FB00000278044BE0
:100EDC0003EBC2035878003818BF0120704700BFDD
:100EEC00EC0200204FF08041014802F04FBC00BFE3
:100EFC003C020020014802F029BC00BF3C0200204B
:100F0C0003460A4910B508680344EFF3088293427C
:100F1C0005D90C224FF0FF30054B1A6010BD054A65
:100F2C00054C121B9342F4D20B60F7E7040000202F
:100F3C00D00500200050002000040000FEE7000057
:100F4C001622024B4FF0FF301A607047D00500207C
:100F5C00012070477047000038B50E4B05461878D5
:100F6C004FF47A73B3FBF0F30B4A1068B0FBF3F059
:100F7C0000F0A0F8044658B90F2D09D802462946AE
:100F8C004FF0FF3000F042F82046044B1D6038BD96
:100F9C000120FCE708000020240000200C000020A9
:100FAC00074A08B51368032043F01003136000F0E0
:100FBC001BF80020FFF7D0FFFFF7CCFF002008BD87
:100FCC0000200240034A044B11681B780B44136049
:100FDC00704700BFCC05002008000020014B1868AA
:100FEC00704700BFCC05002007490302CA6803F410
:100FFC00E06322F4E0621204120C134343F0BF636B
:10100C0043F40033CB60704700ED00E0164B30B575
:10101C00DC68C4F30224C4F10703251D042B28BF8C
:10102C000423062D4FF0FF3598BF002405FA03F377
:10103C0088BF033C21EA0303A34005FA04F422EA27
:10104C000402002843EA0203ACBF00F16040074AE7
:10105C004FEA0313DBB2ABBF00F5614000F00F00A9
:10106C0080F80033135430BD00ED00E014ED00E0C7
:10107C00002808DB0123420900F01F0003FA00F0EE
:10108C00014B43F82200704700E100E000280DDB23
:10109C000122430900F01F0002FA00F0044A203339
:1010AC0042F82300BFF34F8FBFF36F8F704700BF21
:1010BC0000E100E00138B0F1807F0AD2F021064B4C
:1010CC00064A586082F823100020072298601A60A4
:1010DC0070470120704700BF10E000E000ED00E019
:1010EC00002809DB0122430900F01F0002FA00F07E
:1010FC00024A603342F82300704700BF00E100E071
:10110C00704708B5FFF7FCFF08BD000008B590F864
:10111C002130022B03D004238363012008BD036814
:10112C001A6822F00E021A601A6822F001021A6084
:10113C00174A93421CD0143293421BD01432934260
:10114C001AD0143293421AD0143293421AD0143259
:10115C0093420CBF4FF480134FF080730D4A5360D1
:10116C004FF480730384436B7BB198470020D5E721
:10117C000123F3E71023F1E74FF48073EEE74FF40C
:10118C008053EBE74FF48033E8E71846C6E700BF1F
:10119C000800024000000240044A08B551690142AF
:1011AC0002D0506101F09EFD08BD00BF000401405B
:1011BC002DE9F341054638B30368DB0710D42B68DF
:1011CC009F075ED42B68190700F195802B685A078E
:1011DC0000F1BF80E869002840F02C81002029E054
:1011EC008F4C636803F00C03042B07D0636803F087
:1011FC000C03082B0AD16368DE0307D523689C0314
:10120C00DDD56B68002BDAD1012013E06B68B3F5E8
:10121C00803F12D1236843F480332360FFF7DEFE56
:10122C00064623689803CAD4FFF7D8FE801B6428AF
:10123C00F7D9032002B0BDE8F0819BB9236823F4F1
:10124C0080332360236823F480232360FFF7C6FEDA
:10125C00064623689903B2D5FFF7C0FE801B6428AD
:10126C00F7D9E6E7B3F5A02F236803D143F4802325
:10127C002360CFE723F480332360236823F4802397
:10128C00CBE7674C636813F00C0F07D0636803F06F
:10129C000C03082B10D16368DA030DD423689B0769
:1012AC0002D52B69012BAFD123686A6923F0F803AF
:1012BC0043EAC203236085E72A695A4B6AB10122CB
:1012CC001A60FFF78BFE064623689F07ECD4FFF7E6
:1012DC0085FE801B0228F7D9ABE71A60FFF77EFE6C
:1012EC000646236898077FF56DAFFFF777FE801BE6
:1012FC000228F6D99DE7AA69494E4B4BDAB1012277
:10130C001A60FFF76BFE0446736A9B070DD54FF40A
:10131C00FA52464B1B68B3FBF2F3019300BF019BDF
:10132C005A1E0192002BF9D150E7FFF757FE001B14
:10133C000228E9D97DE71A60FFF750FE0446736A6C
:10134C009F077FF543AFFFF749FE001B0228F6D934
:10135C006FE7334CE369D80024D40127E36943F0E9
:10136C008053E361E36903F080530093009B304E9C
:10137C003368D90518D5EB68012B26D1236A43F0C5
:10138C0001032362FFF72AFE41F288380646236ADE
:10139C009B073FD5002F3FF41DAFE36923F080532B
:1013AC00E36117E70027E2E7336843F480733360A7
:1013BC00FFF714FE80463368DA05DCD4FFF70EFE27
:1013CC00A0EB08006428F6D933E7ABB9236A41F2E5
:1013DC00883823F001032362236A23F00403236279
:1013EC00FFF7FCFD0646236A9807D3D5FFF7F6FDF9
:1013FC00801B4045F7D91CE7052B236A03D143F02A
:10140C0004032362BAE723F001032362236A23F067
:10141C000403B6E7FFF7E2FD801B4045B7D908E7A8
:10142C00001002400000424280044242240000208E
:10143C00007000402A4B5A681C4602F00C02082A25
:10144C003DD00023274E022833602BD1FFF7C6FD79
:10145C000746236899011FD42B6AB3F5803F05D149
:10146C006268A96822F400320A436260696A6268A1
:10147C000B4322F474121343636001233360FFF7B0
:10148C00ADFD054623689A013FF5A8AEFFF7A6FD12
:10149C00401B0228F6D9CCE6FFF7A0FDC01B0228A2
:1014AC00D7D9C6E6FFF79AFD054623689B017FF561
:1014BC0095AEFFF793FD401B0228F6D9B9E601283B
:1014CC003FF4B8AE5B682A6A03F4803191427FF432
:1014DC009BAE6A6A03F4701393423FF47FAE93E6BB
:1014EC00001002406000424230B5184B87B002AC8D
:1014FC0003F11005224618685968083303C2AB4241
:10150C001446F7D140F201231149ADF804304B6871
:10151C0003F00C02082A17D1C3F3834206A8024435
:10152C00DB0312F8102C0CD54B680A48C3F340436C
:10153C00504306AA134413F8143CB0FBF3F007B065
:10154C0030BD05485043FAE70248F8E7B03F0008C1
:10155C000010024000127A0000093D002DE9F04114
:10156C000D46044610B90120BDE8F081444A1368C9
:10157C0003F007038B4228D321688E0730D4CA07A7
:10158C0043D43F4A136803F00703AB4265D8226883
:10159C003C4D12F0040F6CD1130706D56B68226911
:1015AC0023F4605343EAC2036B60FFF79DFF6B6843
:1015BC00354AC3F30313D35CD840344B1860344B17
:1015CC001868FFF7C9FC0020CEE7136823F0070367
:1015DC000B431360136803F007038B42C3D1CBE7B3
:1015EC00284B11F0040F1EBF5A6842F4E0625A6097
:1015FC00080742BF5A6842F460525A605A68A068A1
:10160C0022F0F00202435A60B9E762681D4E012ACB
:10161C0033681AD113F4003FA5D0736841F28838AF
:10162C0023F0030313437360FFF7D8FC074673687A
:10163C00626803F00C03B3EB820FA2D0FFF7CEFC71
:10164C00C01B4045F3D903208EE7022A02D113F0C8
:10165C00007FE1E713F0020FDEE7136823F00703C6
:10166C002B431360136803F00703AB427FF47BAF8B
:10167C008DE76B68E16823F4E0630B436B608BE7E9
:10168C00002002400010024084400008240000208A
:10169C000C000020044B054A5B68C3F30223D35CA7
:1016AC00034A1068D840704700100240944000086C
:1016BC0024000020044B054A5B68C3F3C223D35CAF
:1016CC00034A1068D840704700100240944000084C
:1016DC00240000200F2303600B4B5A6802F0030216
:1016EC0042605A6802F0F00282605A6802F4E062CA
:1016FC00C2605B68DB0803F4E0630361034B1B68A7
:10170C0003F007030B6070470010024000200240FA
:10171C0003682DE9F341D907054620D5354CE3691B
:10172C00DA0032D40127E36943F08053E361E369C3
:10173C0003F080530193019B2F4E3368DB0526D5B4
:10174C00236A13F4407336D1236A6A6823F4407316
:10175C00134323621FB1E36923F08053E3612868CC
:10176C00830706D52349AB684A6822F440421A43E2
:10177C004A6010F010001BD01E4AE9685368002024
:10178C0023F480030B43536012E00027D4E7336843
:10179C0043F480733360FFF721FC80463368D8052F
:1017AC00CED4FFF71BFCA0EB08006428F6D903206D
:1017BC0002B0BDE8F0816A6802F440729A42C3D06C
:1017CC0001200E4A236A1060002023F4407110603F
:1017DC002162D907B8D5FFF701FC41F288380646DB
:1017EC00236A9A07B0D4FFF7F9FB801B4045F7D961
:1017FC00DDE700BF00100240007000404004424290
:10180C0090F83D30012B1CD102230F4A80F83D305B
:10181C00036893420AD0B3F1804F07D0A2F59432FB
:10182C00934203D002F58062934204D19A6802F08D
:10183C000702062A03D01A6842F001021A6000203F
:10184C0070470120704700BF002C014041F211127B
:10185C000368196A114208D140F24442196A1142D4
:10186C0002BF1A6822F001021A60012380F83D3091
:10187C000020704790F83C200346012A4FF00200EC
:10188C0009D01A6883F83D0051610020012283F8C9
:10189C003C0083F83D20704770477047036810B5D3
:1018AC001A69044691070ED5DA6892070BD56FF0CA
:1018BC0002021A61012202779B699B0777D002F022
:1018CC00BDF80023237723681A69500710D5DA680E
:1018DC0051070DD56FF004021A61022222779B6921
:1018EC00204613F4407F68D002F0A8F80023237739
:1018FC0023681A6912070FD5DA6810070CD56FF038
:10190C0008021A6104222277DB69204699075AD013
:10191C0002F094F80023237723681A69D20610D5B5
:10192C00DA68D0060DD56FF010021A610822227702
:10193C00DB69204613F4407F4BD002F07FF8002384
:10194C00237723681A69D10708D5DA68D20705D539
:10195C006FF0010220461A6102F044F823681A69FC
:10196C00100608D5DA68110605D56FF080022046FE
:10197C001A6100F0B2F923681A69520608D5DA68C0
:10198C00500605D56FF0400220461A61FFF785FF1F
:10199C0023681A69910622D5DA6892061FD56FF072
:1019AC0020022046BDE810401A6100F095B902F003
:1019BC0043F82046FFF770FF83E702F03DF820461E
:1019CC00FFF76AFF92E702F037F82046FFF764FF53
:1019DC00A0E702F031F82046FFF75EFFAFE710BD3D
:1019EC001A4A036890420AD0B0F1804F07D0A2F592
:1019FC009432904203D002F58062904215D14A682D
:101A0C0023F070031343114A90420AD0B0F1804F77
:101A1C0007D0A2F59432904203D002F58062904236
:101A2C0003D1CA6823F4407313434A6923F080033B
:101A3C00134303608B68C3620B688362034B984249
:101A4C0004BF0B690363012343617047002C014001
:101A5C0010B5044630B390F83D3003F0FF021BB9CB
:101A6C0080F83C2000F00EFF0223206884F83D3003
:101A7C00211DFFF7B5FF0123002084F8463084F8C0
:101A8C003E3084F83F3084F8403084F8413084F89C
:101A9C00423084F8433084F8443084F8453084F87C
:101AAC003D3010BD0120FCE710B50124036A01F0A4
:101ABC001F018C4023EA04030362036A8A401A4321
:101ACC00026210BD10B5044629B990F83E30012BC6
:101ADC001DD0012010BD042907D190F83F30012BF7
:101AEC00F7D1022380F83F3014E0082907D190F891
:101AFC004030012BEDD1022380F840300AE090F801
:101B0C004130012BE5D1022380F8413002E0022361
:101B1C0080F83E3001222068FFF7C6FF23680E4A8A
:101B2C0093420AD15A6C42F400425A649A6802F009
:101B3C000702062A0BD10020CCE7B3F1804FF5D079
:101B4C00064A9342F2D002F580629342EED01A68B4
:101B5C0042F001021A60EEE7002C01400004004044
:101B6C00FFF7B0BF10B5044671BB90F83E0094F877
:101B7C004230C0B20128DBB24ED1012B4DD1022331
:101B8C00002937D184F83E3084F842300122206895
:101B9C00FFF78AFF2368214A93420AD0B3F1804FA2
:101BAC0007D0A2F59432934203D002F5806293429F
:101BBC0004D19A6802F00702062A03D01A6842F090
:101BCC0001021A60002028E0042905D190F83F009A
:101BDC0094F84330C0B2CDE708290BBF90F8400011
:101BEC0094F8410094F8443094F845300CBFC0B2DE
:101BFC00C0B2BFE7042904D184F83F3084F84330E5
:101C0C00C4E708290BBF84F8403084F8413084F8CD
:101C1C00443084F84530B9E7012010BD002C014058
:101C2C0010B50424036A01F01F018C4023EA04035D
:101C3C000362036A8A401A43026210BD10B504465F
:101C4C0029B990F84230012B1DD0012010BD042978
:101C5C0007D190F84330012BF7D1022380F84330A1
:101C6C0014E0082907D190F84430012BEDD1022360
:101C7C0080F844300AE090F84530012BE5D102237E
:101C8C0080F8453002E0022380F8423004222068BC
:101C9C00FFF7C6FF23685A6C42F400425A640C4AA0
:101CAC0093420AD0B3F1804F07D0A2F594329342FD
:101CBC0003D002F58062934204D19A6802F00702C5
:101CCC00062A03D01A6842F001021A600020BDE710
:101CDC00002C0140FFF7B2BF704770470368DA6809
:101CEC0022F49072DA605A6922F001025A612023C0
:101CFC0080F83A307047000010B504460368C1689C
:101D0C001A6922F440520A431A6182680069D96840
:101D1C000243606921F4B05121F00C0102430A43E3
:101D2C00DA605A69A16922F440720A435A610E4A78
:101D3C00934215D1FFF7BEFC192343436268206818
:101D4C009200B3FBF2F36422B3FBF2F102FB11330A
:101D5C001B013233B3FBF2F303EB0113836010BDB1
:101D6C00FFF798FCE8E700BF00380140704710B55A
:101D7C00044640B390F8393003F0FF021BB980F8E9
:101D8C003820FFF7F3FF2423226884F83930D36816
:101D9C00204623F40053D360FFF7AEFF23680020E6
:101DAC001A6922F490421A615A6922F02A025A6185
:101DBC00DA6842F40052DA602023E06384F83930A8
:101DCC0084F83A3010BD0120FCE710B5044660B32E
:101DDC0090F8393003F0FF021BB980F83820FFF778
:101DEC00C5FF2423226884F83930D368204623F4B5
:101DFC000053D360FFF780FF236800201A6922F498
:101E0C0090421A615A6922F022025A615A6942F0D0
:101E1C0008025A61DA6842F40052DA602023E06367
:101E2C0084F8393084F83A3010BD0120FCE790F882
:101E3C003930202B18D1A9B1A2B190F83830012B30
:101E4C0012D0C28400238284212201620168C36300
:101E5C0080F8383080F83920CA68184642F0800281
:101E6C00CA607047012070470220704790F83A30E2
:101E7C00202B20D1E9B1E2B190F83830012B1AD0E7
:101E8C00C285828500232222C36380F83A2002682F
:101E9C0080F838308162D168184641F48071D16085
:101EAC00516941F001015161D16841F02001D160CB
:101EBC007047012070470220704710B590F83A30F7
:101ECC00222B33D18168836AB1F5805F026820D1FF
:101EDC00016909BB5268C2F3080223F8022BC48DB6
:101EEC008362013CA4B2C4858CB90368DA6822F021
:101EFC002002DA60DA6822F48072DA605A6922F021
:101F0C0001025A61202380F83A3000F049FE00208B
:101F1C000DE039B9016929B95268D2B21A70836AD5
:101F2C000133DCE7526802F07F02F7E7022010BDB4
:101F3C00036870B51A6804461607D9685D6907D13D
:101F4C0096065CD58D065AD5BDE87040FFF7B5BF37
:101F5C0005F0010001F49075054350D0D60705D566
:101F6C00CD0542BFE36B43F00103E363530704D594
:101F7C0018B1E36B43F00203E363960704D518B181
:101F8C00E36B43F00403E363150707D501F020036B
:101F9C0003431EBFE36B43F00803E363E36B4BB3F4
:101FAC00900604D5890602D52046FFF786FF2368E4
:101FBC0020465B69E56B03F0400305F008051D4303
:101FCC0019D0FFF78BFE23685A6952060FD55A6950
:101FDC00606B22F040025A6148B1254B4363FFF716
:101FEC0095F838B1606BBDE87040436B18472046DC
:101FFC0000F0DCFD70BD00F0D9FDE563FAE71606D4
:10200C0026D50D0624D594F83920212AF2D1A168C1
:10201C00226AB1F5805F16D12169A1B932F8021B91
:10202C00C1F3080159602262E28C013A92B2E28457
:10203C00002ADFD1DA6822F08002DA60DA6842F036
:10204C004002DA60D6E7511C216212785A60EBE745
:10205C005006CFD54A06CDD5DA68204622F040028C
:10206C00DA60202384F8393000F09DFDC2E700BF10
:10207C008120000808B50023406AC385C38400F0A2
:10208C0095FD08BD90F83830012B11D0242302683F
:10209C0080F83930D36823F00C0343F00803D36085
:1020AC00202380F83930002380F8383018467047E8
:1020BC000220704790F83830012B11D0242302688D
:1020CC0080F83930D36823F00C0343F00403D36059
:1020DC00202380F83930002380F8383018467047B8
:1020EC000220704790F8392090F83A00104370475E
:1020FC0086B0042841D8DFE800F003101C28340017
:10210C001F4B20489A6942F004029A619B6903F0C4
:10211C0004030193019B06B07047194B1A489A6946
:10212C0042F008029A619B6903F008030293029B38
:10213C00F1E7134B15489A6942F010029A619B69BA
:10214C0003F010030393039BE5E70D4B10489A69CA
:10215C0042F020029A619B6903F020030493049BD4
:10216C00D9E7074B0B489A6942F040029A619B6988
:10217C0003F040030593059BCDE70020CBE700BFA0
:10218C000010024000080140000C0140001001400A
:10219C000014014000180140FEF720BF704708B53D
:1021AC00FEF710FFFEF7ADFFFFF7F8FF08BD704715
:1021BC000A4B82B0DA6942F08052DA61DA6902F0D5
:1021CC0080520092009A9A6942F001029A619B69CE
:1021DC0003F001030193019B02B070470010024011
:1021EC000B4BDA68D2015EBFDA6842F08072DA60BB
:1021FC000022084B5A601A6842F001021A6000BFB4
:10220C0000BF00BF5868B0FA80F04009704700BFAB
:10221C00F0ED00E0001000E008B5FFF7C9FFFFF794
:10222C00DFFFFEF7BDFEFFF7C2FFBDE8084000F080
:10223C0029BE00007B4B82B09A69013842F0010242
:10224C009A619B6903F001030193019B23282CD80D
:10225C00DFE810F024002D0034003B004000470064
:10226C004C00530058005F0068006D0074007D0046
:10227C008200890092009B00A000A700B000B5006E
:10228C00BC002B002B002B00C100C8002B002B0026
:10229C002B002B00CD00D200D900E000624A53681D
:1022AC0043F0E06343F00103536002B070475E4AB1
:1022BC00536823F0010343F0E063F5E75A4A53688F
:1022CC0043F0E06343F00203EEE7574A536823F010
:1022DC000203F0E7544A536843F0E06343F004030D
:1022EC00E2E7514A536823F00403E4E74E4A53688B
:1022FC0043F0E06343F00803D6E74B4A536823F0FE
:10230C000803D8E7484A536843F0E06343F03003CE
:10231C00CAE7454A536823F0300343F0E06343F0C7
:10232C001003C1E7404A536823F03003C3E73E4A29
:10233C00536843F0E06343F0C003B5E73A4A53688F
:10234C0023F0C00343F0E06343F04003ACE7364AAC
:10235C00536823F0C003AEE7334A536843F0E0639D
:10236C0043F44073A0E7304A536823F4407343F0BE
:10237C00E06343F4007397E72B4A536823F44073EC
:10238C0043F0E06343F480738EE7274A536823F4E9
:10239C00407390E7244A536843F0E06343F440638E
:1023AC0082E7214A536823F4406343F0E06343F42B
:1023BC00006379E71C4A536823F440637BE71A4AAD
:1023CC00536843F0E06343F480536DE7164A536857
:1023DC0023F480536FE7144A536843F0E06343F4EB
:1023EC00004361E7104A536823F4004363E70E4A45
:1023FC00536823F0E06357E70B4A536823F0E0631C
:10240C0043F0807350E7084A536823F0E06343F0CD
:10241C00007349E7044A536823F0E06343F0806398
:10242C0042E700BF001002400000014091FAA1F306
:10243C00B3FA83F370B50D0E0F2691FAA1F1B1FA30
:10244C0081F144599B0006FA03F3890024EA030442
:10245C0002FA01F12143415170BD91FAA1F3B3FA93
:10246C0083F370B50D0E042691FAA1F1B1FA81F146
:10247C0044599B0006FA03F3890024EA030402FA88
:10248C0001F12143415170BD431C04D00C3151F872
:10249C000C3C5A1C01D100207047834201F10C0105
:1024AC00F5D10120704700005E4B00F00F022DE9C2
:1024BC00F34753F82250431C06460F4601F0070819
:1024CC00C1F3062AC0F3031403D18121564800F04E
:1024DC00F1F82046FFF70CFEB8F1010F04464FEA65
:1024EC00156944D195FAA5F2B2FA82F2032350F899
:1024FC000910920003FA02F221EA020195FAA5F200
:10250C00B2FA82F29200934001220B4340F8093058
:10251C002946204608F1FF38FFF788FFB8F1010F74
:10252C0006D817F0080218BF04222946FFF795FFBA
:10253C0095FAA5F2B2FA82F39A000F23934095FA1A
:10254C00A5F2B2FA82F254F80910C7F301170B4046
:10255C009200012F23FA02F322D0022F4BD0082B2A
:10256C0031D1042229462046FFF760FF2BE0B8F159
:10257C00030F0DD8DFE808F0021207105046FFF7E2
:10258C0059FE0822C4E75046FFF754FE0922BFE764
:10259C00D521254800F08EF80022B9E74246B7E76E
:1025AC00042B04D1082229462046FFF73FFFE2689E
:1025BC002B0A22EA152293FAA3F5B5FA85F3012525
:1025CC009D401543E560194B9A6942F001029A61EE
:1025DC009B6903F001030193019BA6F10D03012BF1
:1025EC0014D8134A536823F0E06343F080635360BC
:1025FC0002B0BDE8F087042B04D1082229462046FE
:10260C00FFF714FFE36823EA1525DBE70F2E02D052
:10261C00133E012EECD8064A536823F0E06343F0D6
:10262C000073E4E744400008C13F0008001002407A
:10263C0000000140431C06D17047834202D18968D7
:10264C00FFF732BF0C310B685A1CF6D140F2031164
:10265C00014800F02FB800BFC13F00080B685A1C9E
:10266C0001D100207047834201D1486870470C317A
:10267C00F4E7431C01D0FFF7F1BF002070474B6813
:10268C0013B94FF0FF307047834201D1086870478F
:10269C000C31F4E708B1FFF7F2BF4FF0FF30704791
:1026AC0003468B42084604D01BB100290CBF1846C8
:1026BC0000207047FEE700000F4B1A6842F0010241
:1026CC001A6059680D4A0A405A601A6822F08472DE
:1026DC0022F480321A601A6822F480221A605A6836
:1026EC0022F4FE025A604FF41F029A604FF000620F
:1026FC00034B9A60704700BF001002400000FFF8C7
:10270C0000ED00E00438704703681D4A84B0934222
:10271C000BD11C4B9A6942F400629A619B6903F4D9
:10272C0000630093009B04B07047B3F1804F10D04E
:10273C00154A934218D0154A9342F4D1114BDA69D9
:10274C0042F00402DA61DB6903F004030393039B98
:10275C00E9E70C4BDA6942F00102DA61DB6903F05C
:10276C0001030193019BDEE7064BDA6942F002029A
:10277C00DA61DB6903F002030293029BD3E700BF2B
:10278C00002C0140001002400004004000080040F2
:10279C000368124A934206D102F56442936923F40A
:1027AC00006393617047B3F1804F06D00C4A93429B
:1027BC0009D00C4A93420BD070470B4AD36923F0D3
:1027CC000103D3617047084AD36923F00203F8E789
:1027DC00054AD36923F00403F3E700BF002C014042
:1027EC0000040040000800400010024008B5431CE3
:1027FC0001460DD00D4B984212D00CD8B0F1804F41
:10280C0010D0A3F5806398420ED00948FFF752FF11
:10281C006FF00D0008BD074B9842F6D11920F9E76F
:10282C001E20F7E71C20F5E71D20F3E70008004009
:10283C009C400008002C014008B5431C01460DD0FB
:10284C000D4B984212D00CD8B0F1804F10D0A3F59C
:10285C00806398420ED00948FFF72CFF6FF00D00F3
:10286C0008BD074B9842F6D11B20F9E71E20F7E76D
:10287C001C20F5E71D20F3E7000800409C400008F1
:10288C00002C014038B50446FFF73EFF0068FFF707
:10289C00ADFFD4E91212FEF7B9FB2068FFF7A6FFD3
:1028AC00FEF7E6FB2068FFF7C7FF05462068FFF739
:1028BC009DFF85420DD02068FFF7BEFFD4E91212B0
:1028CC00FEF7A4FB2068FFF7B7FFBDE83840FEF722
:1028DC00CFBB38BD08B5431C01460FD00A4B9842FC
:1028EC000ED008D8A3F5923398420BD020F4806315
:1028FC00B3F1804F06D00548FFF7DCFE002008BD81
:10290C000220FCE70120FAE7002C0140B44000084B
:10291C002DE9FF4704468946C06C4A4990461F463C
:10292C00DDF830A0FFF7A5FE47490546206DFFF7FF
:10293C00A0FE0646002D00F08280236D013301D0ED
:10294C0000287CD031462846FFF7AAFE20600028DC
:10295C0075D03E4B98423CD103F55843DA6842F4AB
:10296C008042DA60DA6822F48042DA609A6942F4D2
:10297C0080429A619B6903F480430193019B252358
:10298C00A4F854302F49E06CFFF754FE1EB12E49C9
:10299C00206DFFF74FFE94F855202D4B251D43F865
:1029AC00225023680022C4E901390C2394F9540005
:1029BC000121C4E9038AC4E9063267612262FEF789
:1029CC0025FB2846002E35D104B0BDE8F047FFF7B3
:1029DC00FCB9204B984215D103F5E6331A6942F441
:1029EC0000321A611A6922F400321A61DA6942F46F
:1029FC000032DA61DB6903F400330293029B4FF47B
:102A0C009373BDE7144B9842BCD1144D2B6943F41E
:102A1C0080232B612B6923F480232B61EB6943F416
:102A2C008023EB61EB6903F480230393039B40F257
:102A3C002723A5E704B0BDE8F047FFF798B904B029
:102A4C00BDE8F08710430008D4420008003801406C
:102A5C004C0300200044004000480040001002409D
:102A6C0008B1FFF755BF704708B5074B90F85520D4
:102A7C0053F82200FFF736FB00F02200A0F12203EE
:102A8C005842584108BD00BF4C03002008B5074B05
:102A9C0090F8552053F82200FFF724FB00F021009A
:102AAC00A0F121035842584108BD00BF4C0300203F
:102ABC0070B50E46054610B94FF0FF3070BDFFF7EC
:102ACC00D3FF04460028F7D1294611F8563F0122BE
:102ADC00337095F85500034B53F82000FFF7C6F9F7
:102AEC002046EBE74C03002038B50D460446B8B140
:102AFC00FFF7BAFFA0B994F954006564FEF7C6FA63
:102B0C0094F85500074B04F1560153F820000122AC
:102B1C00FFF7ACF994F95400BDE83840FEF7A8BAB9
:102B2C0038BD00BF4C03002038B515460446B8B17B
:102B3C00816490F95400FEF7A9FAB4F86630E16D9F
:102B4C009BB294F855001944064BAAB253F82000D6
:102B5C00FFF76DF994F95400BDE83840FEF788BAD8
:102B6C0038BD00BF4C03002048B1036D013306D1C2
:102B7C0090F85520024B53F82200FFF783BA7047A8
:102B8C004C03002048B1036D013306D190F8552059
:102B9C00024B53F82200FFF78DBA70474C0300200C
:102BAC00036C04381847436C043818471FB5036886
:102BBC000446186810F0010013D0002200921A6825
:102BCC0000925B680093009B201FFFF74DFF40BBFA
:102BDC000122204604F1520104B0BDE81040FFF779
:102BEC0045B9196811F0020106D001901A680192DA
:102BFC005B680193019BE7E71A6812F0040206D0A8
:102C0C0002911A6802925B680293029BDCE71968D6
:102C1C000907D9D503921A6803925B680393039B47
:102C2C00D2E704B010BD000008B52520FEF758FA15
:102C3C00024B1868BDE80840FFF77AB94C03002036
:102C4C0008B52620FEF74CFA024B5868BDE8084040
:102C5C00FFF76EB94C030020272008B5FEF740FAA9
:102C6C00034B986818B1BDE80840FFF761B908BD7F
:102C7C004C030020F8B514490646FFF7FAFC00F0A7
:102C8C0049FD124C054654F8203073B90E493046B4
:102C9C00FFF7EFFC0746B02000F0A6FF06463946CA
:102CAC0000F074FD54F825301E6054F825301C6873
:102CBC0044B1204600F04AFD2046BDE8F840B02162
:102CCC0000F096BFF8BD00BFD0400008A005002062
:102CDC00836810B5044613B1032201469847204679
:102CEC0010BD00000023012803F1010202D013469D
:102CFC004008F8E71421DBB24B43044A181D10447A
:102D0C00816811B11A4413691847704758030020A1
:102D1C000120FEF741BA0220FEF73EBA0420FEF76E
:102D2C003BBA0820FEF738BA1020FEF735BA38B592
:102D3C0005242025A8B2FEF72FFA013C4FEA4505E1
:102D4C00F8D138BD38B506244FF48065A8B2FEF72B
:102D5C0023FA013C4FEA4505F8D138BD38B50023BC
:102D6C0083608B6804460D462BB102229847EB68B2
:102D7C00E360AB68A360204638BD00000721204B00
:102D8C0006221975082183F82810092183F83C10B4
:102D9C000A2183F8501017211A7083F8641000224E
:102DAC0083F8781083F88C1083F8A01083F8B41093
:102DBC002821DA601A625A639A64DA651A67C3F8D2
:102DCC008420C3F89820C3F8AC20C3F8C02083F843
:102DDC00C810C3F8D42083F8DC10C3F8E82083F8BB
:102DEC00F010C3F8FC2083F80411C3F8102183F809
:102DFC001811C3F8242183F82C11C3F8382170471B
:102E0C005803002038B5054CA4F5A075143C201DC2
:102E1C00FFF75EFFAC42F9D138BD00BF980400202B
:102E2C001148854672B6BFF34F8FBFF36F8F71B6E3
:102E3C00002103E00D4B5B58435004310C480D4B03
:102E4C0042189A42F6D30C4A02E0002342F8043BA3
:102E5C000A4B9A42F9D3FFF72FFC62B661B600F029
:102E6C00DBFE00F0B7FE704700500020D84600088B
:102E7C00000000208C0000208C000020E0050020C9
:102E8C00FEE700BE00B595B0102200210DA800F0A1
:102E9C00F7FE142200210DEB020000F0F1FE1022CF
:102EAC00002101A800F0ECFE01224FF480330E92B9
:102EBC00CDE90A2302220021CDE911234FF4E013BE
:102ECC000AA80C911393FEF773F918B16E211348ED
:102EDC00FFF7F0FB0F2302214FF48062CDE905319F
:102EEC00002305A8CDE907320993FEF737FB18B18B
:102EFC007A210A48FFF7DEFB12234FF400410193BD
:102F0C00002301A8CDE90313FEF702FC18B18121BF
:102F1C000248FFF7CFFB15B05DF804FB4C430008EB
:102F2C00C3B2222B2DE9F0410E462AD8294A00F4CF
:102F3C00E06052F823400443621C49D0264DC4F390
:102F4C00031755F8273004F00F0823FA08F3DB07B2
:102F5C0010D520462149FFF797FA10B12046FFF70C
:102F6C0089FE012303FA08F255F8273023EA0203FD
:102F7C0045F82730052E25D8DFE806F014201A1C5A
:102F8C001E2200F0C002C02A22D1C92B20D8144B1B
:102F9C0000F03F0253F822200E4B00F4E06053F88F
:102FAC002240C8E700212046BDE8F041FFF77CBA7B
:102FBC001021F8E72021F6E70321F4E70121F2E7DD
:102FCC000921F0E74921BDE8F0410648FFF772BB43
:102FDC00BDE8F0810C440008B0050020D04000088A
:102FEC00E443000898440008C3B2222B19D8184AAD
:102FFC0000F4E06052F823301843C0F30313042BA1
:10300C0098BF144A00F00F0098BF52F82320124BBF
:10301C0088BF002253F82030C3F30F23A9B11361EA
:10302C00704700F0C002C02A0CD1C92B0AD80B4B38
:10303C0000F03F0253F82220054B00F4E06053F8F7
:10304C002230D9E74FF0FF30D7E75361704700BF0C
:10305C000C4400081000002044400008E443000821
:10306C00FFF79AB838B5044648B1FFF795F805460E
:10307C0000F0C2FDFFF790F8431BA342F8D338BD14
:10308C00B0F86620836E134403F03F03A0F866305B
:10309C00B0F86630B0F862009BB298424FF0FF3047
:1030AC0018BF00207047B0F8F830B0F8F400181AC8
:1030BC0000F03F007047B0F8F830B0F8F4209BB245
:1030CC0093421ABFD0F8EC30985C4FF0FF30704749
:1030DC00B0F8FA3090F8F620D8B2824227BFC2F18D
:1030EC003F028018801A00F1FF30704707B5036863
:1030FC008DF8071001225B680DF10701984703B0AA
:10310C005DF804FB13B50DF107010446FFF7D0FC85
:10311C0090B9B4F86430B4F86020013303F03F0385
:10312C00934209D0B4F864209DF80700A16D92B2C7
:10313C009BB28854A4F8643002B010BD2DE9F8435A
:10314C0001230374D0F8E430044601330D46904655
:10315C0000F1940908D190F800312BB1002380F8CC
:10316C0000314846FFF700FD4646B4F8F670BB192F
:10317C00402B0AD92368C7F1400729463A46204616
:10318C005B689847F61B3D44EFE7402E07D1236858
:10319C0029463F2220465B68984701263F35AF19E8
:1031AC00BD42B4F8F6200FD0531C03F03F03B4F823
:1031BC00FA1089B28B42FAD015F8010BD4F8F01042
:1031CC008854A4F8F630EBE7B4F8FA30334403F043
:1031DC003F039A42F8D14846C4F8FC60FFF756FC0E
:1031EC0020B9324648460349FFF79EFC4046BDE8ED
:1031FC00F88300BF8D300008037C33B1B0F8F620A3
:10320C00B0F8FA309BB29A42FAD17047914208BF9B
:10321C004FF0FF3100F11103C0F8EC300023C0E98E
:10322C00382100F15102A0F8F830C0E93C23A0F895
:10323C00FA3070474FF47A7310B50024C0E901439B
:10324C001F4B0360CBB2222B11D81E4C01F4E06152
:10325C0054F823301943D3B2222B1CD8194C02F446
:10326C00E06254F823301A43FFF7D0FF10BD01F091
:10327C00C004C02C0CD1C92B0AD8134B01F03F044D
:10328C0053F824400F4B01F4E06153F82430E1E78C
:10329C004FF0FF31DFE702F0C004C02C0CD1C92B7A
:1032AC000AD8094B02F03F0453F82440054B02F4B2
:1032BC00E06253F82430D6E74FF0FF32D4E700BF7A
:1032CC00984500080C440008E4430008CBB2222BBC
:1032DC0008D80E4A01F4E06152F823301943C0F8C3
:1032EC00E410704701F0C002C02A0CD1C92B0AD8D7
:1032FC00074B01F03F0253F82220044B01F4E0612C
:10330C0053F82230EAE74FF0FF31E8E70C440008AD
:10331C00E4430008CBB2222B08D80E4A01F4E0613A
:10332C0052F823301943C0F8E010704701F0C00286
:10333C00C02A0CD1C92B0AD8074B01F03F0253F815
:10334C002220044B01F4E06153F82230EAE74FF0FD
:10335C00FF31E8E70C440008E443000870B54FF473
:10336C007A7316460022C0E90123154B044603600C
:10337C004FF0FF33C0F8E430124B0D46984211D198
:10338C000A21FFF7A3FF0B21FFF7C4FF012E04BF97
:10339C004FF0FF33C4F8E4302046D4E93821FFF76E
:1033AC0035FF70BD08492846FFF774F90749C4F882
:1033BC00E4002846FFF76EF9C4F8E000E6E700BF2A
:1033CC009845000898040020D442000810430008D7
:1033DC00D0F8E43010B5013304460ED10368DB6835
:1033EC00984794F8003143B9012304F1940084F810
:1033FC000031BDE81040FFF7C5BB10BD02F007035C
:10340C00023BDBB2042B2DE9F7430E46C0F8041146
:10341C0096BF1E490024CC5C02F03003302B0546CD
:10342C0080F8012126D14FF4C067013412F0080F47
:10343C0014BF4FF400594FF00009082C21D0092C6F
:10344C0021D04FF4C6711248FFF734F905F19408F6
:10345C0031463B4622464046CDF80090FFF700FB34
:10346C002846FFF7B5FF40460A4903B0BDE8F043D4
:10347C00FFF73ABB12F020071CBF4FF480670134F2
:10348C00D4E70024E2E74FF48054DFE788450008D6
:10349C000F4500081131000810B50446FFF798FFDE
:1034AC00B4F8F820B4F8F43092B29A4217BFD4F8BA
:1034BC00EC204FF0FF30D05C01331CBF03F03F0316
:1034CC00A4F8F43010BD0000002202490248FFF7B6
:1034DC0045BF00BF0038014098040020836810B538
:1034EC0004462BB10322014698470023C4E902335A
:1034FC00204610BD10B5044650F8103FDA6822F093
:10350C000102DA60DA6822F00202DA60DA6822F08C
:10351C000402DA60DA6822F00802DA60DA6822F073
:10352C001002DA60FEF792F92269136823F00103A6
:10353C001360012384F84E3084F84F3084F85030F7
:10354C0084F8513084F8523084F8533084F8543075
:10355C0084F8553010BD4B1E032B9ABF88000438DD
:10356C004FF0FF30704700000139435C2BB102294A
:10357C0007D8054B33F811007047032901D8034BCA
:10358C00F8E74FF0FF307047344600083A46000821
:10359C002DE9F04104460F46FFF7DDFF431C0546BD
:1035AC0004D14FF4AB713E48FFF784F87E1E032E16
:1035BC0028D83C4B13F8068039462046FFF7D4FF39
:1035CC00013004D14FF4B0713548FFF773F806376A
:1035DC0004EB0717BB683BB16FEA080223691A6159
:1035EC00DA6842EA0802DA6004EB46039B88023B85
:1035FC000A2B4BD8DFE803F01B1B1B0E0E1B1B4CBE
:10360C004C4C280040F25B1125484FF0FF38FFF777
:10361C0051F8D1E7A35D294604F110001BB1BDE8B8
:10362C00F041FEF757BBBDE8F041FEF799BAA35D38
:10363C00294604F110001BB1BDE8F041FEF7FEBABB
:10364C00BDE8F041FEF73EBA294604F11000FEF742
:10365C0089FA032E8CBF4FF0FF32134B204698BFD4
:10366C009A5725691146FFF77FFF2B6A1843BB68F1
:10367C0028625BB1013A032A8EBF4FF0FF32094B2F
:10368C009A5CD3432B61EB681343EB60BDE8F0818C
:10369C00294604F11000BDE8F041FEF763BA00BF03
:1036AC00BC4500084246000846460008836E10B52B
:1036BC00044653B16FF0010250F8103F1A61DA68FA
:1036CC0042F00102DA60FEF79BF820460121FFF779
:1036DC005FFF20460221FFF75BFF20460321FFF727
:1036EC0057FF2046BDE810400421FFF751BF036986
:1036FC0001399962704703691A6819B142F0800266
:10370C001A60704722F08002FAE701211030FEF7B0
:10371C00B1B800000B4B98420ED0B0F1804F0DD0D9
:10372C00A3F5943398420BD04FF6FF73064A9042A0
:10373C0014BF1846032070470020704701207047C3
:10374C0002207047002C014000080040014670B573
:10375C00044651F8100FFFF7DDFF05460846FFF74A
:10376C0017F80023084A04F1600642F82530E3609C
:10377C0004F1B005B54204D0103D2846FFF7A8FA75
:10378C00F8E7204670BD00BFA0050020F8B5002367
:10379C00044683668367C0F88830C0F89830C0F858
:1037AC00A83008460D46FFF7B5FF4FF6FF73984259
:1037BC00064603D12F211E48FEF77CFF1D4A04F15B
:1037CC000C0342F8263000230E2204F1100625616A
:1037DC003046C4E90C33C4E90E33C4E91033C4E9F0
:1037EC00162384F82C30A36484F84C3084F84D30C4
:1037FC00E460FEF789FF04F1600504F1B007284688
:10380C001035FFF76BFEBD42F9D100234FF6FF7266
:10381C00C4E90033C4E90632C4E90833A360636128
:10382C0080233046A362FEF713F92046F8BD00BF93
:10383C00BC450008A005002030B50546002487B023
:10384C001422002101A800F01BFA694601A800947B
:10385C00FDF740FF2869FFF73DF8012809D0022841
:10386C0015D00E4840F20F51FEF724FF204607B04A
:10387C0030BD049CFDF70EFFB4F5C06F05D00AD81F
:10388C0024F48074B4F5806FF1D14000EFE7059C0F
:10389C00FDF710FFF0E7B4F5E06FF5E7BC45000865
:1038AC00012A38B505460C4607D0022A12D004B1BD
:1038BC00013C2B69DC62EC6138BDFFF7BDFF0849A8
:1038CC00B0FBF1F044432B69210C99620131B4FB3C
:1038DC00F1F4ECE7FFF7B0FFB0FBF4F4F3E700BF53
:1038EC0040420F00034B186810B10430FDF7D6BFEF
:1038FC00704700BFA0050020FFF7F4BF034B5868CA
:10390C0010B10430FDF7CABF704700BFA0050020FE
:10391C00034B986810B10430FDF7C0BF704700BF6F
:10392C00A0050020034BD86810B10430FDF7B6BFDA
:10393C00704700BFA005002030B587B002AD04462B
:10394C002846FFF70BFA95E803006B4683E8030063
:10395C0094E8030085E8030093E80300049BA26845
:10396C00A360059B0492E26884E80300E3602846A8
:10397C000592FFF7ADF9204607B030BD38B50446C7
:10398C00A36E0D46603013B1FFF7D6FF38BDFFF7BD
:10399C00D3FFAB68002BF9D06FF0010223691A61D9
:1039AC00DA6842F00102DA60F0E7826810B50AB911
:1039BC0000F07EFAC368BDE81040184710B5044605
:1039CC0020B940F236410648FEF774FE2046FEF759
:1039DC0099FE0068836E13B16030FFF7E6FF10BDEF
:1039EC00BC450008FFF7EABF38B5054620B940F2E0
:1039FC0049411048FEF75EFE2B7F013B072B11D887
:103A0C00DFE803F0150410111010101302242846DF
:103A1C00FEF778FE0068063400EB041083680BB1E7
:103A2C00FFF7C3FF38BD0324F1E70424EFE70124BB
:103A3C00EDE700BFBC450008FFF7D6BFFFF7D4BFCA
:103A4C00F8B505460E4617460024BC4207D02B6835
:103A5C0028461B68315D984708B10134F5E72046CC
:103A6C00F8BD70B505460C46084649B1FCF748FB55
:103A7C002B68024621462846BDE870405B68184713
:103A8C0070BD08B5FFF7EDFF08BD03681B6818474C
:103A9C0008B50249FFF7E5FF08BD00BF4A4600081C
:103AAC000023012A98BF0A2230B58BB00C468DF842
:103ABC00243009A92546B4FBF2F404FB1253DBB203
:103ACC00092B94BF30333733DBB2AA4201F8013DE6
:103ADC00F0D9FFF7C6FF0BB030BD2DE9F04107461A
:103AEC000E4614462AB9BDE8F0410368C9B21B68FA
:103AFC0018470A2A0DD100290CDA2D21FFF7C5FF32
:103B0C002246054671423846FFF7CAFF2844BDE8F5
:103B1C00F081D2B2BDE8F041FFF7C2BFFFF7DDBFC5
:103B2C0038B50546FFF7D9FF04462846FFF7B0FF26
:103B3C00204438BD10B50446FFF792FAE0602368C4
:103B4C0020465B699847002808DAFFF789FAE36892
:103B5C00C01AA3689842F2D34FF0FF3010BDF8B5ED
:103B6C0006460D4617460024BC4207D03046FFF7E8
:103B7C00E1FF031E02DB2B550134F5E72046F8BDAF
:103B8C002DE9F0410746884616461D4673B10024C0
:103B9C003846FFF7CFFF031E05DB434503D03355F3
:103BAC000134A542F4D12046BDE8F0811C46FAE769
:103BBC0010B5029C401AE41A4443511A94FBF1F4D8
:103BCC00E01810BD08B50320FDF70EFABDE808405B
:103BDC0000F010B808B5AFF30080FCF78BFCFCF7D5
:103BEC001DFE00F00BF8FAE700F03AB800F038B818
:103BFC0000F03EB8FEF710BB7047000008B5044B50
:103C0C002BB10448FFF74FFA08B1AFF3008008BDA1
:103C1C00000000009804002070B500260C4D0D4CDF
:103C2C00641BA410A64209D100F046F900260A4DE7
:103C3C000A4C641BA410A64205D170BD55F8043B78
:103C4C0098470136EEE755F8043B98470136F2E702
:103C5C00B0460008B0460008B0460008C846000848
:103C6C00024B0146186800F05FB800BF2800002026
:103C7C00024B0146186800F00BB800BF280000206A
:103C8C0003460244934200D1704703F8011BF9E745
:103C9C0038B50546002943D051F8043C0C1F002BC5
:103CAC00B8BFE41800F0ACF81E4A1368104633B9DC
:103CBC00636014602846BDE8384000F0A7B8A34202
:103CCC000AD921686218934201BF1A685B685218BE
:103CDC00226063600460EDE71A465B680BB1A34297
:103CEC00FAD911685018A0420BD120680144501821
:103CFC0083421160DED118685B6801441160536027
:103D0C00D8E702D90C232B60D4E7206821188B420A
:103D1C0001BF19685B680918216063605460C9E7CA
:103D2C0038BD00BFC4050020F8B5CD1C25F0030537
:103D3C0008350C2D38BF0C25002D064601DBA94299
:103D4C0003D90C2333600020F8BD00F059F8214949
:103D5C000A6814469CB9204F3B6823B9214630466B
:103D6C0000F03CF838602946304600F037F8431C28
:103D7C0023D10C233046336000F048F8E3E7236886
:103D8C005B1B17D40B2B03D923601C44256004E068
:103D9C006368A2420CBF0B605360304600F036F8EB
:103DAC0004F10B00231D20F00700C21ACCD01B1A03
:103DBC00A350C9E722466468CCE7C41C24F0030472
:103DCC00A042E3D0211A304600F008F80130DDD1D2
:103DDC00CFE700BFC4050020C805002038B500237C
:103DEC00054D044608462B60FDF78AF8431C02D1AA
:103DFC002B6803B1236038BDD00500207047704795
:103E0C000148FFF7FBBF00BFD80500200148FFF7B2
:103E1C00F6BF00BFD8050020062008B500F02CF82E
:103E2C000120FDF78BF81F2938B504460D4604D93F
:103E3C00162303604FF0FF3038BD426C12B152F8BC
:103E4C0021304BB9204600F031F82A460146204675
:103E5C00BDE8384000F018B8012B0AD0591C03D12A
:103E6C00162303600120E7E70024284642F825408A
:103E7C0098470020E0E70000024B01461868FFF766
:103E8C00D2BF00BF2800002038B50023064D0446E1
:103E9C00084611462B60FDF753F8431C02D12B68E2
:103EAC0003B1236038BD00BFD0050020FDF750B82A
:103EBC0008B5FFF7B1FF0000F8B500BFF8BC08BCAF
:103ECC009E467047F8B500BFF8BC08BC9E467047CC
:103EDC0072656164313A200072656164323A200087
:103EEC006B652074696E67006368752066616E6728
:103EFC000066616E67206A69616E00736875206682
:103F0C00616E670063652073756F007969206C6161
:103F1C006E670057656C636F6D65210049276D20D6
:103F2C004C756369612E0042547365747570004161
:103F3C00726D736574757000427574746F6E536531
:103F4C0074757000536C6176655365747570000000
:103F5C0000000000000000007D0100089D01000829
:103F6C005D01000823070008B101000817020008D2
:103F7C0007070008B90600086F060008DF010008F3
:103F8C0063060008610100086102000800000000DF
:103F9C0000000000790900084D3A00086D0800087F
:103FAC007108000802030405060708090A0B0C0D2A
:103FBC000E0F101000433A5C55736572735C636DA1
:103FCC00736D615C417070446174615C4C6F6361D2
:103FDC006C5C41726475696E6F31355C7061636BDA
:103FEC00616765735C53544D6963726F656C65638F
:103FFC0074726F6E6963735C686172647761726509
:10400C005C73746D33325C322E302E305C6C6962B2
:10401C007261726965735C5372635772617070651B
:10402C00725C7372635C73746D33325C70696E6D49
:10403C0061702E630000000001010000020200000C
:10404C0004040000080800001010000020200000EC
:10405C0040400000808000000100010402000204C6
:10406C0004000404080008041000100420002004BC
:10407C0040004004800080040000000000000000AC
:10408C0001020304060708090000000001020304F2
:10409C0054494D3A20556E6B6E6F776E2074696D76
:1040AC006572204952516E0054494D3A20556E6B41
:1040BC006E6F776E2074696D657220696E737461B2
:1040CC006E636500000000000000004012800000DC
:1040DC0000010000000000401290000001000000F0
:1040EC00000000401212010001010000000000401D
:1040FC0012100100020000000000004012920100AA
:10410C0002010000000000401291010003000000B9
:10411C0000000040121202000301000000000040E9
:10412C00121102000600000000040040129500006D
:10413C0007000000002C0140128D10000701000048
:10414C00000400401215010008000000002C014082
:10415C00128E000008010000002C0140128D00009E
:10416C0009000000002C0140120E010009010000A2
:10417C00002C0140120D01000A000000002C01402F
:10418C00128E01000A010000002C0140128D01006A
:10419C000B000000002C0140120E02000B0100006D
:1041AC00002C0140120D02000F0000000000004026
:1041BC00129100000F01000000000040128F00005F
:1041CC0010000000002C0140120D11001001000025
:1041DC000004004012950100100200000004004091
:1041EC001294010011000000002C0140128D1100EE
:1041FC001101000000040040121502001102000021
:10420C0000040040121402001300000000000040E3
:10421C00121101001301000000000040120F0100F8
:10422C00140000000004004012940000150000006F
:10423C0000040040121401001600000000080040A9
:10424C001297000017000000000800401217010030
:10425C00180000000008004012970100190000002F
:10426C0000080040121702001A0000000000004075
:10427C00129001001A01000000000040128F010092
:10428C001B00000000000040121002001B01000087
:10429C0000000040120F02001D000000002C014025
:1042AC00128E10001E000000002C0140120E110096
:1042BC001F000000002C0140128E1100FFFFFFFFB9
:1042CC00000000000000000003000000004400405B
:1042DC00100800000A000000003801401006000021
:1042EC001700000000380140100500001B00000002
:1042FC000048004010000000FFFFFFFF000000001E
:10430C000000000002000000004400401208000001
:10431C0009000000003801401206000016000000E1
:10432C0000380140120500001A000000004800404F
:10433C0012000000FFFFFFFF000000000000000063
:10434C00433A5C55736572735C636D736D615C416C
:10435C007070446174615C4C6F63616C5C4172643D
:10436C0075696E6F31355C7061636B616765735C29
:10437C0053544D6963726F656C656374726F6E69CB
:10438C0063735C68617264776172655C73746D33BE
:10439C00325C322E302E305C76617269616E7473D1
:1043AC005C53544D3332463178785C46313033436C
:1043BC0038545F46313033434228542D55295C76AE
:1043CC00617269616E745F50494C4C5F4631303399
:1043DC0043782E637070000014000000150000007C
:1043EC001600000017000000180000001900000063
:1043FC001A0000001B0000001C0000001D00000043
:10440C001900000018000000170000001600000042
:10441C001500000014000000130000000F00000045
:10442C000C0000000B0000000A0000000900000056
:10443C00080000001F0000001E0000001D0000000E
:10444C001C0000002D0000002E0000002F000000BA
:10445C00000000000100000002000000030000004A
:10446C00040000000500000006000000070000002A
:10447C0010000000110000001A0000001B000000DA
:10448C00120000000D0000000E000000433A5C55C5
:10449C00736572735C636D736D615C4170704461C4
:1044AC0074615C4C6F63616C5C41726475696E6FB6
:1044BC0031355C7061636B616765735C53544D6936
:1044CC0063726F656C656374726F6E6963735C683D
:1044DC00617264776172655C73746D33325C322E19
:1044EC00302E305C636F7265735C61726475696EDB
:1044FC006F5C776972696E675F6469676974616C18
:10450C002E6300433A5C55736572735C636D736D17
:10451C00615C417070446174615C4C6F63616C5C94
:10452C0041726475696E6F31355C7061636B616784
:10453C0065735C53544D6963726F656C656374721B
:10454C006F6E6963735C68617264776172655C73CA
:10455C00746D33325C322E302E305C636F72657347
:10456C005C61726475696E6F5C48617264776172CC
:10457C006553657269616C2E6370700006000700EC
:10458C00080000000000000000000000F9300008E6
:10459C0049310008DD30000805320008B33000084E
:1045AC00A5340008C33000086B3B00088D3B0008A5
:1045BC00433A5C55736572735C636D736D615C41FA
:1045CC007070446174615C4C6F63616C5C417264CB
:1045DC0075696E6F31355C7061636B616765735CB7
:1045EC0053544D6963726F656C656374726F6E6959
:1045FC0063735C68617264776172655C73746D334C
:10460C00325C322E302E305C636F7265735C61727B
:10461C006475696E6F5C4861726477617265546928
:10462C006D65722E63707000040040000004010080
:10463C0010000001001002040810020104030D0A0E
:10464C00000000000000000000000000000000005E
:10465C00000000000000000000000000000000004E
:10466C00000000000000000000000000000000003E
:10467C00000000000000000000000000000000002E
:10468C00000000000000000000000000000000001E
:10469C00000000000000000000000000000000000E
:0446AC00000000000A
:1046B000D13B0008410100087D070008F10E000809
:0846C000892D0008D534000823
:1046C8001D010008F9070008010F0008112E000855
:1046D800FF000000E00500200100000010000000BD
:1046E80000080140000C0140001001400014014086
:1046F800001801400024F4002C00002000000000F5
:104708007046000890460008504600080000000067
:104718000000000000000000000000000000000091
:104728000000000000000000000000000000000081
:104738000000000000000000000000000000000071
:104748000000000000000000000000000000000061
:0C47580000000000000000000000000055
:0400000508002E2D94
:00000001FF
